{
  "address": "0xe356E372FD29A74428F32B80A4096c2cD1f03E00",
  "abi": [
    {
      "inputs": [
        {
          "internalType": "uint256",
          "name": "_lockTime",
          "type": "uint256"
        },
        {
          "internalType": "address",
          "name": "dataFeedAddr",
          "type": "address"
        }
      ],
      "stateMutability": "nonpayable",
      "type": "constructor"
    },
    {
      "inputs": [],
      "name": "Owner",
      "outputs": [
        {
          "internalType": "address",
          "name": "",
          "type": "address"
        }
      ],
      "stateMutability": "view",
      "type": "function"
    },
    {
      "inputs": [],
      "name": "dataFeed",
      "outputs": [
        {
          "internalType": "contract AggregatorV3Interface",
          "name": "",
          "type": "address"
        }
      ],
      "stateMutability": "view",
      "type": "function"
    },
    {
      "inputs": [],
      "name": "fund",
      "outputs": [],
      "stateMutability": "payable",
      "type": "function"
    },
    {
      "inputs": [
        {
          "internalType": "address",
          "name": "",
          "type": "address"
        }
      ],
      "name": "fundersToAmount",
      "outputs": [
        {
          "internalType": "uint256",
          "name": "",
          "type": "uint256"
        }
      ],
      "stateMutability": "view",
      "type": "function"
    },
    {
      "inputs": [],
      "name": "getChainlinkDataFeedLatestAnswer",
      "outputs": [
        {
          "internalType": "int256",
          "name": "",
          "type": "int256"
        }
      ],
      "stateMutability": "view",
      "type": "function"
    },
    {
      "inputs": [],
      "name": "getFund",
      "outputs": [],
      "stateMutability": "nonpayable",
      "type": "function"
    },
    {
      "inputs": [],
      "name": "getFundSuccess",
      "outputs": [
        {
          "internalType": "bool",
          "name": "",
          "type": "bool"
        }
      ],
      "stateMutability": "view",
      "type": "function"
    },
    {
      "inputs": [],
      "name": "reFund",
      "outputs": [],
      "stateMutability": "nonpayable",
      "type": "function"
    },
    {
      "inputs": [
        {
          "internalType": "address",
          "name": "_erc20Addr",
          "type": "address"
        }
      ],
      "name": "setErc20Addr",
      "outputs": [],
      "stateMutability": "nonpayable",
      "type": "function"
    },
    {
      "inputs": [
        {
          "internalType": "address",
          "name": "funder",
          "type": "address"
        },
        {
          "internalType": "uint256",
          "name": "amountToUpdate",
          "type": "uint256"
        }
      ],
      "name": "setFundersToAmount",
      "outputs": [],
      "stateMutability": "nonpayable",
      "type": "function"
    },
    {
      "inputs": [
        {
          "internalType": "address",
          "name": "newOwner",
          "type": "address"
        }
      ],
      "name": "transferOwnership",
      "outputs": [],
      "stateMutability": "nonpayable",
      "type": "function"
    }
  ],
  "transactionHash": "0x4eb71743bb0c60ce77a43189a426466e5627571266b1311c0c01d69728910032",
  "args": [
    180,
    "0x694AA1769357215DE4FAC081bf1f309aDC325306"
  ],
  "numDeployments": 1,
  "solcInputHash": "04a79d409bb1dc31b854eb66f730a23a",
  "bytecode": "0x60806040526000600460146101000a81548160ff02191690831515021790555034801561002b57600080fd5b506040516115c73803806115c7833981810160405281019061004d919061017d565b80600560006101000a81548173ffffffffffffffffffffffffffffffffffffffff021916908373ffffffffffffffffffffffffffffffffffffffff16021790555033600160006101000a81548173ffffffffffffffffffffffffffffffffffffffff021916908373ffffffffffffffffffffffffffffffffffffffff160217905550426002819055508160038190555050506101bd565b600080fd5b6000819050919050565b6100fc816100e9565b811461010757600080fd5b50565b600081519050610119816100f3565b92915050565b600073ffffffffffffffffffffffffffffffffffffffff82169050919050565b600061014a8261011f565b9050919050565b61015a8161013f565b811461016557600080fd5b50565b60008151905061017781610151565b92915050565b60008060408385031215610194576101936100e4565b5b60006101a28582860161010a565b92505060206101b385828601610168565b9150509250929050565b6113fb806101cc6000396000f3fe60806040526004361061009c5760003560e01c8063b23c30f611610064578063b23c30f614610160578063b4a99a4e14610189578063b60d4288146101b4578063bea4dfb5146101be578063da4658e0146101e9578063f2fde38b146102145761009c565b80630ff0a4df146100a157806313ffff01146100b85780638edd6eb6146100e15780639e42ff90146100f85780639f883a0514610123575b600080fd5b3480156100ad57600080fd5b506100b661023d565b005b3480156100c457600080fd5b506100df60048036038101906100da9190610b78565b61045e565b005b3480156100ed57600080fd5b506100f6610532565b005b34801561010457600080fd5b5061010d610738565b60405161011a9190610c04565b60405180910390f35b34801561012f57600080fd5b5061014a60048036038101906101459190610b78565b61075e565b6040516101579190610c38565b60405180910390f35b34801561016c57600080fd5b5061018760048036038101906101829190610c7f565b610776565b005b34801561019557600080fd5b5061019e61084d565b6040516101ab9190610cce565b60405180910390f35b6101bc610873565b005b3480156101ca57600080fd5b506101d361095d565b6040516101e09190610d02565b60405180910390f35b3480156101f557600080fd5b506101fe6109fe565b60405161020b9190610d38565b60405180910390f35b34801561022057600080fd5b5061023b60048036038101906102369190610b78565b610a11565b005b60035460025461024d9190610d82565b42101561028f576040517f08c379a000000000000000000000000000000000000000000000000000000000815260040161028690610e13565b60405180910390fd5b683635c9adc5dea000006102a247610ae5565b106102e2576040517f08c379a00000000000000000000000000000000000000000000000000000000081526004016102d990610e7f565b60405180910390fd5b60008060003373ffffffffffffffffffffffffffffffffffffffff1673ffffffffffffffffffffffffffffffffffffffff16815260200190815260200160002054905060008103610368576040517f08c379a000000000000000000000000000000000000000000000000000000000815260040161035f90610eeb565b60405180910390fd5b60003373ffffffffffffffffffffffffffffffffffffffff168260405161038e90610f3c565b60006040518083038185875af1925050503d80600081146103cb576040519150601f19603f3d011682016040523d82523d6000602084013e6103d0565b606091505b50508091505080610416576040517f08c379a000000000000000000000000000000000000000000000000000000000815260040161040d90610f9d565b60405180910390fd5b60008060003373ffffffffffffffffffffffffffffffffffffffff1673ffffffffffffffffffffffffffffffffffffffff168152602001908152602001600020819055505050565b600160009054906101000a900473ffffffffffffffffffffffffffffffffffffffff1673ffffffffffffffffffffffffffffffffffffffff163373ffffffffffffffffffffffffffffffffffffffff16146104ee576040517f08c379a00000000000000000000000000000000000000000000000000000000081526004016104e59061102f565b60405180910390fd5b80600460006101000a81548173ffffffffffffffffffffffffffffffffffffffff021916908373ffffffffffffffffffffffffffffffffffffffff16021790555050565b6003546002546105429190610d82565b421015610584576040517f08c379a000000000000000000000000000000000000000000000000000000000815260040161057b90610e13565b60405180910390fd5b600160009054906101000a900473ffffffffffffffffffffffffffffffffffffffff1673ffffffffffffffffffffffffffffffffffffffff163373ffffffffffffffffffffffffffffffffffffffff1614610614576040517f08c379a000000000000000000000000000000000000000000000000000000000815260040161060b9061102f565b60405180910390fd5b683635c9adc5dea0000061062747610ae5565b1015610668576040517f08c379a000000000000000000000000000000000000000000000000000000000815260040161065f9061109b565b60405180910390fd5b60003373ffffffffffffffffffffffffffffffffffffffff164760405161068e90610f3c565b60006040518083038185875af1925050503d80600081146106cb576040519150601f19603f3d011682016040523d82523d6000602084013e6106d0565b606091505b50508091505060008060003373ffffffffffffffffffffffffffffffffffffffff1673ffffffffffffffffffffffffffffffffffffffff168152602001908152602001600020819055506001600460146101000a81548160ff02191690831515021790555050565b600560009054906101000a900473ffffffffffffffffffffffffffffffffffffffff1681565b60006020528060005260406000206000915090505481565b600460009054906101000a900473ffffffffffffffffffffffffffffffffffffffff1673ffffffffffffffffffffffffffffffffffffffff163373ffffffffffffffffffffffffffffffffffffffff1614610806576040517f08c379a00000000000000000000000000000000000000000000000000000000081526004016107fd9061112d565b60405180910390fd5b806000808473ffffffffffffffffffffffffffffffffffffffff1673ffffffffffffffffffffffffffffffffffffffff168152602001908152602001600020819055505050565b600160009054906101000a900473ffffffffffffffffffffffffffffffffffffffff1681565b68056bc75e2d6310000061088634610ae5565b10156108c7576040517f08c379a00000000000000000000000000000000000000000000000000000000081526004016108be90611199565b60405180910390fd5b6003546002546108d79190610d82565b4210610918576040517f08c379a000000000000000000000000000000000000000000000000000000000815260040161090f90611205565b60405180910390fd5b346000803373ffffffffffffffffffffffffffffffffffffffff1673ffffffffffffffffffffffffffffffffffffffff16815260200190815260200160002081905550565b600080600560009054906101000a900473ffffffffffffffffffffffffffffffffffffffff1673ffffffffffffffffffffffffffffffffffffffff1663feaf968c6040518163ffffffff1660e01b815260040160a060405180830381865afa1580156109cd573d6000803e3d6000fd5b505050506040513d601f19601f820116820180604052508101906109f191906112a8565b5050509150508091505090565b600460149054906101000a900460ff1681565b600160009054906101000a900473ffffffffffffffffffffffffffffffffffffffff1673ffffffffffffffffffffffffffffffffffffffff163373ffffffffffffffffffffffffffffffffffffffff1614610aa1576040517f08c379a0000000000000000000000000000000000000000000000000000000008152600401610a989061102f565b60405180910390fd5b80600160006101000a81548173ffffffffffffffffffffffffffffffffffffffff021916908373ffffffffffffffffffffffffffffffffffffffff16021790555050565b600080610af061095d565b90506305f5e1008184610b039190611323565b610b0d9190611394565b915050919050565b600080fd5b600073ffffffffffffffffffffffffffffffffffffffff82169050919050565b6000610b4582610b1a565b9050919050565b610b5581610b3a565b8114610b6057600080fd5b50565b600081359050610b7281610b4c565b92915050565b600060208284031215610b8e57610b8d610b15565b5b6000610b9c84828501610b63565b91505092915050565b6000819050919050565b6000610bca610bc5610bc084610b1a565b610ba5565b610b1a565b9050919050565b6000610bdc82610baf565b9050919050565b6000610bee82610bd1565b9050919050565b610bfe81610be3565b82525050565b6000602082019050610c196000830184610bf5565b92915050565b6000819050919050565b610c3281610c1f565b82525050565b6000602082019050610c4d6000830184610c29565b92915050565b610c5c81610c1f565b8114610c6757600080fd5b50565b600081359050610c7981610c53565b92915050565b60008060408385031215610c9657610c95610b15565b5b6000610ca485828601610b63565b9250506020610cb585828601610c6a565b9150509250929050565b610cc881610b3a565b82525050565b6000602082019050610ce36000830184610cbf565b92915050565b6000819050919050565b610cfc81610ce9565b82525050565b6000602082019050610d176000830184610cf3565b92915050565b60008115159050919050565b610d3281610d1d565b82525050565b6000602082019050610d4d6000830184610d29565b92915050565b7f4e487b7100000000000000000000000000000000000000000000000000000000600052601160045260246000fd5b6000610d8d82610c1f565b9150610d9883610c1f565b9250828201905080821115610db057610daf610d53565b5b92915050565b600082825260208201905092915050565b7f57696e646f77206973206e6f7420636c6f736564210000000000000000000000600082015250565b6000610dfd601583610db6565b9150610e0882610dc7565b602082019050919050565b60006020820190508181036000830152610e2c81610df0565b9050919050565b7f5461726765742069732072656163686564000000000000000000000000000000600082015250565b6000610e69601183610db6565b9150610e7482610e33565b602082019050919050565b60006020820190508181036000830152610e9881610e5c565b9050919050565b7f7468657265206973206e6f742066756e6420666f7220796f7521000000000000600082015250565b6000610ed5601a83610db6565b9150610ee082610e9f565b602082019050919050565b60006020820190508181036000830152610f0481610ec8565b9050919050565b600081905092915050565b50565b6000610f26600083610f0b565b9150610f3182610f16565b600082019050919050565b6000610f4782610f19565b9150819050919050565b7f7472616e73666572207478206661696c65640000000000000000000000000000600082015250565b6000610f87601283610db6565b9150610f9282610f51565b602082019050919050565b60006020820190508181036000830152610fb681610f7a565b9050919050565b7f746869732066756e6374696f6e2063616e206f6e6c792062652063616c6c656460008201527f206279206f776e65720000000000000000000000000000000000000000000000602082015250565b6000611019602983610db6565b915061102482610fbd565b604082019050919050565b600060208201905081810360008301526110488161100c565b9050919050565b7f546172676574206973206e6f7420726561636865640000000000000000000000600082015250565b6000611085601583610db6565b91506110908261104f565b602082019050919050565b600060208201905081810360008301526110b481611078565b9050919050565b7f796f7520646f206e6f742068617665207065726d697373696f6e20746f20636160008201527f6c6c20746869732066756e6374696f6e00000000000000000000000000000000602082015250565b6000611117603083610db6565b9150611122826110bb565b604082019050919050565b600060208201905081810360008301526111468161110a565b9050919050565b7f73656e64206d6f72652045544800000000000000000000000000000000000000600082015250565b6000611183600d83610db6565b915061118e8261114d565b602082019050919050565b600060208201905081810360008301526111b281611176565b9050919050565b7f77696e646f777320697320636c6f736564000000000000000000000000000000600082015250565b60006111ef601183610db6565b91506111fa826111b9565b602082019050919050565b6000602082019050818103600083015261121e816111e2565b9050919050565b600069ffffffffffffffffffff82169050919050565b61124481611225565b811461124f57600080fd5b50565b6000815190506112618161123b565b92915050565b61127081610ce9565b811461127b57600080fd5b50565b60008151905061128d81611267565b92915050565b6000815190506112a281610c53565b92915050565b600080600080600060a086880312156112c4576112c3610b15565b5b60006112d288828901611252565b95505060206112e38882890161127e565b94505060406112f488828901611293565b935050606061130588828901611293565b925050608061131688828901611252565b9150509295509295909350565b600061132e82610c1f565b915061133983610c1f565b925082820261134781610c1f565b9150828204841483151761135e5761135d610d53565b5b5092915050565b7f4e487b7100000000000000000000000000000000000000000000000000000000600052601260045260246000fd5b600061139f82610c1f565b91506113aa83610c1f565b9250826113ba576113b9611365565b5b82820490509291505056fea2646970667358221220c0d1655526c63f8537d12042b408496a114e0f7e922ccaec9e5f1fa04c010ea064736f6c634300081c0033",
  "devdoc": {
    "kind": "dev",
    "methods": {},
    "version": 1
  },
  "userdoc": {
    "kind": "user",
    "methods": {},
    "version": 1
  },
  "storageLayout": {
    "storage": [
      {
        "astId": 53,
        "contract": "contracts/FundMe.sol:FundMe",
        "label": "fundersToAmount",
        "offset": 0,
        "slot": "0",
        "type": "t_mapping(t_address,t_uint256)"
      },
      {
        "astId": 69,
        "contract": "contracts/FundMe.sol:FundMe",
        "label": "Owner",
        "offset": 0,
        "slot": "1",
        "type": "t_address"
      },
      {
        "astId": 71,
        "contract": "contracts/FundMe.sol:FundMe",
        "label": "deploymentTimeStamp",
        "offset": 0,
        "slot": "2",
        "type": "t_uint256"
      },
      {
        "astId": 73,
        "contract": "contracts/FundMe.sol:FundMe",
        "label": "lockTime",
        "offset": 0,
        "slot": "3",
        "type": "t_uint256"
      },
      {
        "astId": 75,
        "contract": "contracts/FundMe.sol:FundMe",
        "label": "erc20Addr",
        "offset": 0,
        "slot": "4",
        "type": "t_address"
      },
      {
        "astId": 78,
        "contract": "contracts/FundMe.sol:FundMe",
        "label": "getFundSuccess",
        "offset": 20,
        "slot": "4",
        "type": "t_bool"
      },
      {
        "astId": 81,
        "contract": "contracts/FundMe.sol:FundMe",
        "label": "dataFeed",
        "offset": 0,
        "slot": "5",
        "type": "t_contract(AggregatorV3Interface)45"
      }
    ],
    "types": {
      "t_address": {
        "encoding": "inplace",
        "label": "address",
        "numberOfBytes": "20"
      },
      "t_bool": {
        "encoding": "inplace",
        "label": "bool",
        "numberOfBytes": "1"
      },
      "t_contract(AggregatorV3Interface)45": {
        "encoding": "inplace",
        "label": "contract AggregatorV3Interface",
        "numberOfBytes": "20"
      },
      "t_mapping(t_address,t_uint256)": {
        "encoding": "mapping",
        "key": "t_address",
        "label": "mapping(address => uint256)",
        "numberOfBytes": "32",
        "value": "t_uint256"
      },
      "t_uint256": {
        "encoding": "inplace",
        "label": "uint256",
        "numberOfBytes": "32"
      }
    }
  }
}